{
  "contractName": "InkaCompoundProvider",
  "abi": [
    {
      "inputs": [
        {
          "internalType": "address",
          "name": "_weth",
          "type": "address"
        }
      ],
      "stateMutability": "nonpayable",
      "type": "constructor"
    },
    {
      "anonymous": false,
      "inputs": [
        {
          "indexed": false,
          "internalType": "address",
          "name": "cToken",
          "type": "address"
        },
        {
          "indexed": false,
          "internalType": "address",
          "name": "underlyingToken",
          "type": "address"
        },
        {
          "indexed": false,
          "internalType": "uint256",
          "name": "tokenSupply",
          "type": "uint256"
        }
      ],
      "name": "InkaSupplyERC20Compound",
      "type": "event"
    },
    {
      "anonymous": false,
      "inputs": [
        {
          "indexed": false,
          "internalType": "address",
          "name": "cToken",
          "type": "address"
        },
        {
          "indexed": false,
          "internalType": "uint256",
          "name": "tokenSupply",
          "type": "uint256"
        }
      ],
      "name": "InkaSupplyETHCompound",
      "type": "event"
    },
    {
      "anonymous": false,
      "inputs": [
        {
          "indexed": true,
          "internalType": "address",
          "name": "previousOwner",
          "type": "address"
        },
        {
          "indexed": true,
          "internalType": "address",
          "name": "newOwner",
          "type": "address"
        }
      ],
      "name": "OwnershipTransferred",
      "type": "event"
    },
    {
      "inputs": [],
      "name": "FEE_DENOMINATOR",
      "outputs": [
        {
          "internalType": "uint256",
          "name": "",
          "type": "uint256"
        }
      ],
      "stateMutability": "view",
      "type": "function",
      "constant": true
    },
    {
      "inputs": [],
      "name": "WETH",
      "outputs": [
        {
          "internalType": "address",
          "name": "",
          "type": "address"
        }
      ],
      "stateMutability": "view",
      "type": "function",
      "constant": true
    },
    {
      "inputs": [],
      "name": "owner",
      "outputs": [
        {
          "internalType": "address",
          "name": "",
          "type": "address"
        }
      ],
      "stateMutability": "view",
      "type": "function",
      "constant": true
    },
    {
      "inputs": [],
      "name": "providerFee",
      "outputs": [
        {
          "internalType": "uint256",
          "name": "",
          "type": "uint256"
        }
      ],
      "stateMutability": "view",
      "type": "function",
      "constant": true
    },
    {
      "inputs": [],
      "name": "renounceOwnership",
      "outputs": [],
      "stateMutability": "nonpayable",
      "type": "function"
    },
    {
      "inputs": [
        {
          "internalType": "address",
          "name": "newOwner",
          "type": "address"
        }
      ],
      "name": "transferOwnership",
      "outputs": [],
      "stateMutability": "nonpayable",
      "type": "function"
    },
    {
      "stateMutability": "payable",
      "type": "receive",
      "payable": true
    },
    {
      "inputs": [
        {
          "internalType": "address payable",
          "name": "_cEtherContract",
          "type": "address"
        }
      ],
      "name": "supplyEthToCompound",
      "outputs": [
        {
          "internalType": "bool",
          "name": "",
          "type": "bool"
        }
      ],
      "stateMutability": "payable",
      "type": "function",
      "payable": true
    },
    {
      "inputs": [
        {
          "internalType": "address",
          "name": "_erc20Token",
          "type": "address"
        },
        {
          "internalType": "address",
          "name": "_cErc20Token",
          "type": "address"
        },
        {
          "internalType": "uint256",
          "name": "_numTokensToSupply",
          "type": "uint256"
        }
      ],
      "name": "supplyErc20ToCompound",
      "outputs": [
        {
          "internalType": "uint256",
          "name": "",
          "type": "uint256"
        }
      ],
      "stateMutability": "nonpayable",
      "type": "function"
    },
    {
      "inputs": [
        {
          "internalType": "address",
          "name": "token",
          "type": "address"
        }
      ],
      "name": "withdraw",
      "outputs": [],
      "stateMutability": "nonpayable",
      "type": "function"
    },
    {
      "inputs": [
        {
          "internalType": "uint256",
          "name": "_fee",
          "type": "uint256"
        }
      ],
      "name": "setFee",
      "outputs": [],
      "stateMutability": "nonpayable",
      "type": "function"
    },
    {
      "inputs": [
        {
          "internalType": "address",
          "name": "_weth",
          "type": "address"
        }
      ],
      "name": "setWETH",
      "outputs": [],
      "stateMutability": "nonpayable",
      "type": "function"
    }
  ],
  "bytecode": "0x60806040526305f5e10060025534801561001857600080fd5b50604051620021ed380380620021ed8339818101604052602081101561003d57600080fd5b8101908080519060200190929190505050600061005e6101ca60201b60201c565b9050806000806101000a81548173ffffffffffffffffffffffffffffffffffffffff021916908373ffffffffffffffffffffffffffffffffffffffff1602179055508073ffffffffffffffffffffffffffffffffffffffff16600073ffffffffffffffffffffffffffffffffffffffff167f8be0079c531659141344cd1fd0a4f28419497f9722a3daafe3b4186f6b6457e060405160405180910390a350600073ffffffffffffffffffffffffffffffffffffffff168173ffffffffffffffffffffffffffffffffffffffff161415610183576040517f08c379a0000000000000000000000000000000000000000000000000000000008152600401808060200182810382526026815260200180620021c76026913960400191505060405180910390fd5b80600160006101000a81548173ffffffffffffffffffffffffffffffffffffffff021916908373ffffffffffffffffffffffffffffffffffffffff160217905550506101d2565b600033905090565b611fe580620001e26000396000f3fe6080604052600436106100a05760003560e01c80638da5cb5b116100645780638da5cb5b1461022f578063a82ffd8814610270578063ad5c4648146102ca578063c6e983d91461030b578063d73792a914610336578063f2fde38b14610361576100a7565b80633b7ba25f146100ac57806351cff8d91461013b5780635b769f3c1461018c57806369fe0e2d146101dd578063715018a614610218576100a7565b366100a757005b600080fd5b3480156100b857600080fd5b50610125600480360360608110156100cf57600080fd5b81019080803573ffffffffffffffffffffffffffffffffffffffff169060200190929190803573ffffffffffffffffffffffffffffffffffffffff169060200190929190803590602001909291905050506103b2565b6040518082815260200191505060405180910390f35b34801561014757600080fd5b5061018a6004803603602081101561015e57600080fd5b81019080803573ffffffffffffffffffffffffffffffffffffffff1690602001909291905050506103c8565b005b34801561019857600080fd5b506101db600480360360208110156101af57600080fd5b81019080803573ffffffffffffffffffffffffffffffffffffffff1690602001909291905050506106f1565b005b3480156101e957600080fd5b506102166004803603602081101561020057600080fd5b81019080803590602001909291905050506107fd565b005b34801561022457600080fd5b5061022d6108cf565b005b34801561023b57600080fd5b50610244610a55565b604051808273ffffffffffffffffffffffffffffffffffffffff16815260200191505060405180910390f35b6102b26004803603602081101561028657600080fd5b81019080803573ffffffffffffffffffffffffffffffffffffffff169060200190929190505050610a7e565b60405180821515815260200191505060405180910390f35b3480156102d657600080fd5b506102df610ea7565b604051808273ffffffffffffffffffffffffffffffffffffffff16815260200191505060405180910390f35b34801561031757600080fd5b50610320610ecd565b6040518082815260200191505060405180910390f35b34801561034257600080fd5b5061034b610ed3565b6040518082815260200191505060405180910390f35b34801561036d57600080fd5b506103b06004803603602081101561038457600080fd5b81019080803573ffffffffffffffffffffffffffffffffffffffff169060200190929190505050610edc565b005b60006103bf8484846110e7565b90509392505050565b6103d06117be565b73ffffffffffffffffffffffffffffffffffffffff1660008054906101000a900473ffffffffffffffffffffffffffffffffffffffff1673ffffffffffffffffffffffffffffffffffffffff1614610490576040517f08c379a00000000000000000000000000000000000000000000000000000000081526004018080602001828103825260208152602001807f4f776e61626c653a2063616c6c6572206973206e6f7420746865206f776e657281525060200191505060405180910390fd5b600160009054906101000a900473ffffffffffffffffffffffffffffffffffffffff1673ffffffffffffffffffffffffffffffffffffffff168173ffffffffffffffffffffffffffffffffffffffff16141561063a5760008173ffffffffffffffffffffffffffffffffffffffff166370a08231306040518263ffffffff1660e01b8152600401808273ffffffffffffffffffffffffffffffffffffffff16815260200191505060206040518083038186803b15801561054f57600080fd5b505afa158015610563573d6000803e3d6000fd5b505050506040513d602081101561057957600080fd5b81019080805190602001909291905050509050600081111561062357600160009054906101000a900473ffffffffffffffffffffffffffffffffffffffff1673ffffffffffffffffffffffffffffffffffffffff16632e1a7d4d826040518263ffffffff1660e01b815260040180828152602001915050600060405180830381600087803b15801561060a57600080fd5b505af115801561061e573d6000803e3d6000fd5b505050505b61063461062e610a55565b476117c6565b506106ee565b6106ed81610646610a55565b8373ffffffffffffffffffffffffffffffffffffffff166370a08231306040518263ffffffff1660e01b8152600401808273ffffffffffffffffffffffffffffffffffffffff16815260200191505060206040518083038186803b1580156106ad57600080fd5b505afa1580156106c1573d6000803e3d6000fd5b505050506040513d60208110156106d757600080fd5b8101908080519060200190929190505050611925565b5b50565b6106f96117be565b73ffffffffffffffffffffffffffffffffffffffff1660008054906101000a900473ffffffffffffffffffffffffffffffffffffffff1673ffffffffffffffffffffffffffffffffffffffff16146107b9576040517f08c379a00000000000000000000000000000000000000000000000000000000081526004018080602001828103825260208152602001807f4f776e61626c653a2063616c6c6572206973206e6f7420746865206f776e657281525060200191505060405180910390fd5b80600160006101000a81548173ffffffffffffffffffffffffffffffffffffffff021916908373ffffffffffffffffffffffffffffffffffffffff16021790555050565b6108056117be565b73ffffffffffffffffffffffffffffffffffffffff1660008054906101000a900473ffffffffffffffffffffffffffffffffffffffff1673ffffffffffffffffffffffffffffffffffffffff16146108c5576040517f08c379a00000000000000000000000000000000000000000000000000000000081526004018080602001828103825260208152602001807f4f776e61626c653a2063616c6c6572206973206e6f7420746865206f776e657281525060200191505060405180910390fd5b8060028190555050565b6108d76117be565b73ffffffffffffffffffffffffffffffffffffffff1660008054906101000a900473ffffffffffffffffffffffffffffffffffffffff1673ffffffffffffffffffffffffffffffffffffffff1614610997576040517f08c379a00000000000000000000000000000000000000000000000000000000081526004018080602001828103825260208152602001807f4f776e61626c653a2063616c6c6572206973206e6f7420746865206f776e657281525060200191505060405180910390fd5b600073ffffffffffffffffffffffffffffffffffffffff1660008054906101000a900473ffffffffffffffffffffffffffffffffffffffff1673ffffffffffffffffffffffffffffffffffffffff167f8be0079c531659141344cd1fd0a4f28419497f9722a3daafe3b4186f6b6457e060405160405180910390a360008060006101000a81548173ffffffffffffffffffffffffffffffffffffffff021916908373ffffffffffffffffffffffffffffffffffffffff160217905550565b60008060009054906101000a900473ffffffffffffffffffffffffffffffffffffffff16905090565b60008073ffffffffffffffffffffffffffffffffffffffff168273ffffffffffffffffffffffffffffffffffffffff161415610b05576040517f08c379a0000000000000000000000000000000000000000000000000000000008152600401808060200182810382526026815260200180611e476026913960400191505060405180910390fd5b60003411610b5e576040517f08c379a000000000000000000000000000000000000000000000000000000000815260040180806020018281038252602d815260200180611e1a602d913960400191505060405180910390fd5b60008290508073ffffffffffffffffffffffffffffffffffffffff1663fe9c44ae6040518163ffffffff1660e01b815260040160206040518083038186803b158015610ba957600080fd5b505afa158015610bbd573d6000803e3d6000fd5b505050506040513d6020811015610bd357600080fd5b8101908080519060200190929190505050610c39576040517f08c379a000000000000000000000000000000000000000000000000000000000815260040180806020018281038252602a815260200180611ee6602a913960400191505060405180910390fd5b6000610c676402540be400610c5960025434611b0890919063ffffffff16565b611b9d90919063ffffffff16565b905060008273ffffffffffffffffffffffffffffffffffffffff166370a08231306040518263ffffffff1660e01b8152600401808273ffffffffffffffffffffffffffffffffffffffff16815260200191505060206040518083038186803b158015610cd257600080fd5b505afa158015610ce6573d6000803e3d6000fd5b505050506040513d6020811015610cfc57600080fd5b810190808051906020019092919050505090508273ffffffffffffffffffffffffffffffffffffffff16631249c58b610d3e8434611bb190919063ffffffff16565b6040518263ffffffff1660e01b81526004016000604051808303818588803b158015610d6957600080fd5b505af1158015610d7d573d6000803e3d6000fd5b505050505060008373ffffffffffffffffffffffffffffffffffffffff166370a08231306040518263ffffffff1660e01b8152600401808273ffffffffffffffffffffffffffffffffffffffff16815260200191505060206040518083038186803b158015610deb57600080fd5b505afa158015610dff573d6000803e3d6000fd5b505050506040513d6020811015610e1557600080fd5b81019080805190602001909291905050509050610e458633610e408585611bb190919063ffffffff16565b611925565b7f8ca254bcd9f80e7c1f8f671c89ef9d3d8c009f189ba2041df12e97d475fce1468634604051808373ffffffffffffffffffffffffffffffffffffffff1681526020018281526020019250505060405180910390a16001945050505050919050565b600160009054906101000a900473ffffffffffffffffffffffffffffffffffffffff1681565b60025481565b6402540be40081565b610ee46117be565b73ffffffffffffffffffffffffffffffffffffffff1660008054906101000a900473ffffffffffffffffffffffffffffffffffffffff1673ffffffffffffffffffffffffffffffffffffffff1614610fa4576040517f08c379a00000000000000000000000000000000000000000000000000000000081526004018080602001828103825260208152602001807f4f776e61626c653a2063616c6c6572206973206e6f7420746865206f776e657281525060200191505060405180910390fd5b600073ffffffffffffffffffffffffffffffffffffffff168173ffffffffffffffffffffffffffffffffffffffff16141561102a576040517f08c379a0000000000000000000000000000000000000000000000000000000008152600401808060200182810382526026815260200180611e6d6026913960400191505060405180910390fd5b8073ffffffffffffffffffffffffffffffffffffffff1660008054906101000a900473ffffffffffffffffffffffffffffffffffffffff1673ffffffffffffffffffffffffffffffffffffffff167f8be0079c531659141344cd1fd0a4f28419497f9722a3daafe3b4186f6b6457e060405160405180910390a3806000806101000a81548173ffffffffffffffffffffffffffffffffffffffff021916908373ffffffffffffffffffffffffffffffffffffffff16021790555050565b60008073ffffffffffffffffffffffffffffffffffffffff168473ffffffffffffffffffffffffffffffffffffffff16141561116e576040517f08c379a0000000000000000000000000000000000000000000000000000000008152600401808060200182810382526027815260200180611e936027913960400191505060405180910390fd5b600073ffffffffffffffffffffffffffffffffffffffff168373ffffffffffffffffffffffffffffffffffffffff1614156111f4576040517f08c379a0000000000000000000000000000000000000000000000000000000008152600401808060200182810382526028815260200180611f106028913960400191505060405180910390fd5b6000821161124d576040517f08c379a000000000000000000000000000000000000000000000000000000000815260040180806020018281038252602d815260200180611e1a602d913960400191505060405180910390fd5b600084905060008490508073ffffffffffffffffffffffffffffffffffffffff1663fe9c44ae6040518163ffffffff1660e01b815260040160206040518083038186803b15801561129d57600080fd5b505afa1580156112b1573d6000803e3d6000fd5b505050506040513d60208110156112c757600080fd5b810190808051906020019092919050505061132d576040517f08c379a000000000000000000000000000000000000000000000000000000000815260040180806020018281038252602c815260200180611eba602c913960400191505060405180910390fd5b838273ffffffffffffffffffffffffffffffffffffffff1663dd62ed3e33306040518363ffffffff1660e01b8152600401808373ffffffffffffffffffffffffffffffffffffffff1681526020018273ffffffffffffffffffffffffffffffffffffffff1681526020019250505060206040518083038186803b1580156113b357600080fd5b505afa1580156113c7573d6000803e3d6000fd5b505050506040513d60208110156113dd57600080fd5b81019080805190602001909291905050501015611445576040517f08c379a0000000000000000000000000000000000000000000000000000000008152600401808060200182810382526031815260200180611f7f6031913960400191505060405180910390fd5b60006114736402540be40061146560025488611b0890919063ffffffff16565b611b9d90919063ffffffff16565b905061148187333088611c34565b8273ffffffffffffffffffffffffffffffffffffffff1663095ea7b387876040518363ffffffff1660e01b8152600401808373ffffffffffffffffffffffffffffffffffffffff16815260200182815260200192505050602060405180830381600087803b1580156114f257600080fd5b505af1158015611506573d6000803e3d6000fd5b505050506040513d602081101561151c57600080fd5b81019080805190602001909291905050505060008273ffffffffffffffffffffffffffffffffffffffff166370a08231306040518263ffffffff1660e01b8152600401808273ffffffffffffffffffffffffffffffffffffffff16815260200191505060206040518083038186803b15801561159757600080fd5b505afa1580156115ab573d6000803e3d6000fd5b505050506040513d60208110156115c157600080fd5b8101908080519060200190929190505050905060008373ffffffffffffffffffffffffffffffffffffffff1663a0712d68611605858a611bb190919063ffffffff16565b6040518263ffffffff1660e01b815260040180828152602001915050602060405180830381600087803b15801561163b57600080fd5b505af115801561164f573d6000803e3d6000fd5b505050506040513d602081101561166557600080fd5b8101908080519060200190929190505050905060008473ffffffffffffffffffffffffffffffffffffffff166370a08231306040518263ffffffff1660e01b8152600401808273ffffffffffffffffffffffffffffffffffffffff16815260200191505060206040518083038186803b1580156116e157600080fd5b505afa1580156116f5573d6000803e3d6000fd5b505050506040513d602081101561170b57600080fd5b8101908080519060200190929190505050905061173b89336117368685611bb190919063ffffffff16565b611925565b7f05fde167127e3a6603939fb300c444e5a18c3106c980a39aad2456cec0a8383b898b8a604051808473ffffffffffffffffffffffffffffffffffffffff1681526020018373ffffffffffffffffffffffffffffffffffffffff168152602001828152602001935050505060405180910390a18196505050505050509392505050565b600033905090565b60008273ffffffffffffffffffffffffffffffffffffffff1682600067ffffffffffffffff811180156117f857600080fd5b506040519080825280601f01601f19166020018201604052801561182b5781602001600182028036833780820191505090505b506040518082805190602001908083835b6020831061185f578051825260208201915060208101905060208303925061183c565b6001836020036101000a03801982511681845116808217855250505050505090500191505060006040518083038185875af1925050503d80600081146118c1576040519150601f19603f3d011682016040523d82523d6000602084013e6118c6565b606091505b5050905080611920576040517f08c379a0000000000000000000000000000000000000000000000000000000008152600401808060200182810382526023815260200180611f386023913960400191505060405180910390fd5b505050565b600060608473ffffffffffffffffffffffffffffffffffffffff1663a9059cbb8585604051602401808373ffffffffffffffffffffffffffffffffffffffff168152602001828152602001925050506040516020818303038152906040529060e01b6020820180517bffffffffffffffffffffffffffffffffffffffffffffffffffffffff83818316178352505050506040518082805190602001908083835b602083106119e857805182526020820191506020810190506020830392506119c5565b6001836020036101000a0380198251168184511680821785525050505050509050019150506000604051808303816000865af19150503d8060008114611a4a576040519150601f19603f3d011682016040523d82523d6000602084013e611a4f565b606091505b5091509150818015611a8f5750600081511480611a8e5750808060200190516020811015611a7c57600080fd5b81019080805190602001909291905050505b5b611b01576040517f08c379a000000000000000000000000000000000000000000000000000000000815260040180806020018281038252601f8152602001807f5472616e7366657248656c7065723a205452414e534645525f4641494c45440081525060200191505060405180910390fd5b5050505050565b600080821480611b255750828283850292508281611b2257fe5b04145b611b97576040517f08c379a00000000000000000000000000000000000000000000000000000000081526004018080602001828103825260148152602001807f64732d6d6174682d6d756c2d6f766572666c6f7700000000000000000000000081525060200191505060405180910390fd5b92915050565b6000818381611ba857fe5b04905092915050565b6000828284039150811115611c2e576040517f08c379a00000000000000000000000000000000000000000000000000000000081526004018080602001828103825260158152602001807f64732d6d6174682d7375622d756e646572666c6f77000000000000000000000081525060200191505060405180910390fd5b92915050565b600060608573ffffffffffffffffffffffffffffffffffffffff166323b872dd868686604051602401808473ffffffffffffffffffffffffffffffffffffffff1681526020018373ffffffffffffffffffffffffffffffffffffffff16815260200182815260200193505050506040516020818303038152906040529060e01b6020820180517bffffffffffffffffffffffffffffffffffffffffffffffffffffffff83818316178352505050506040518082805190602001908083835b60208310611d155780518252602082019150602081019050602083039250611cf2565b6001836020036101000a0380198251168184511680821785525050505050509050019150506000604051808303816000865af19150503d8060008114611d77576040519150601f19603f3d011682016040523d82523d6000602084013e611d7c565b606091505b5091509150818015611dbc5750600081511480611dbb5750808060200190516020811015611da957600080fd5b81019080805190602001909291905050505b5b611e11576040517f08c379a0000000000000000000000000000000000000000000000000000000008152600401808060200182810382526024815260200180611f5b6024913960400191505060405180910390fd5b50505050505056fe496e6b61436f6d706f756e6450726f76696465723a20544f4b454e535f535550504c595f4d4f52455f5a45524f496e6b61556e697377617050726f76696465723a205a45524f5f434554485f414444524553534f776e61626c653a206e6577206f776e657220697320746865207a65726f2061646472657373496e6b61556e697377617050726f76696465723a205a45524f5f45524332305f41444452455353496e6b61436f6d706f756e6450726f76696465723a20494e56414c49445f43544f4b454e5f41444452455353496e6b61436f6d706f756e6450726f76696465723a20494e56414c49445f434554485f41444452455353496e6b61556e697377617050726f76696465723a205a45524f5f4345524332305f414444524553535472616e7366657248656c7065723a204554485f5452414e534645525f4641494c45445472616e7366657248656c7065723a205452414e534645525f46524f4d5f4641494c4544496e6b61436f6d706f756e6450726f76696465723a20544f4b454e535f535550504c595f4e4f545f414c4c4f57414e4345a26469706673582212201cd27f67f2544a08d9eaf2c2e62bbdf7a0a66ab605e759e8b1a9ffd5055e8a0964736f6c634300060c0033496e6b61556e697377617050726f76696465723a205a45524f5f574554485f41444452455353",
  "immutableReferences": {},
  "source": "pragma solidity =0.6.12;\n\nimport \"./utils/Ownable.sol\";\nimport './libraries/TransferHelper.sol';\nimport \"./libraries/SafeMath.sol\";\n\nimport \"./eth/interfaces/IERC20.sol\";\nimport \"./eth/interfaces/ICERC20.sol\";\nimport \"./eth/interfaces/ICETH.sol\";\nimport \"./eth/interfaces/IWETH.sol\";\n\ncontract InkaCompoundProvider is Ownable {\n    using SafeMath for uint256;\n\n    event InkaSupplyERC20Compound(address cToken, address underlyingToken, uint256 tokenSupply);\n    event InkaSupplyETHCompound(address cToken, uint256 tokenSupply);\n\n    address public WETH;\n\n    constructor (address _weth) public {\n        require(_weth != address(0), \"InkaUniswapProvider: ZERO_WETH_ADDRESS\");\n        WETH = _weth;\n    }\n\n    uint256 public providerFee = 10 * 10 ** 7;\n    uint256 public constant FEE_DENOMINATOR = 10 ** 10;\n\n    function supplyEthToCompound(address payable _cEtherContract)\n        public\n        payable\n        returns (bool)\n    {\n        require(_cEtherContract != address(0), \"InkaUniswapProvider: ZERO_CETH_ADDRESS\");\n        require(msg.value > 0, \"InkaCompoundProvider: TOKENS_SUPPLY_MORE_ZERO\");\n        ICETH cToken = ICETH(_cEtherContract);\n        require(cToken.isCToken(), \"InkaCompoundProvider: INVALID_CETH_ADDRESS\");\n        uint feeAmount = msg.value.mul(providerFee).div(FEE_DENOMINATOR);\n\n        uint balanceBefore = cToken.balanceOf(address(this));\n        cToken.mint{value: msg.value.sub(feeAmount)}();\n        uint balanceAfter = cToken.balanceOf(address(this));\n        TransferHelper.safeTransfer(_cEtherContract, msg.sender, balanceAfter.sub(balanceBefore));\n        emit InkaSupplyETHCompound(_cEtherContract, msg.value);\n        return true;\n    }\n\n    function supplyErc20ToCompound(\n        address _erc20Token,\n        address _cErc20Token,\n        uint256 _numTokensToSupply\n    ) public returns (uint) {\n        return _supplyErc20ToCompound(_erc20Token, _cErc20Token, _numTokensToSupply);\n    }\n\n    function _supplyErc20ToCompound(\n        address _erc20Token,\n        address _cErc20Token,\n        uint256 _numTokensToSupply\n    ) internal returns (uint) {\n        require(_erc20Token != address(0), \"InkaUniswapProvider: ZERO_ERC20_ADDRESS\");\n        require(_cErc20Token != address(0), \"InkaUniswapProvider: ZERO_CERC20_ADDRESS\");\n        require(_numTokensToSupply > 0, \"InkaCompoundProvider: TOKENS_SUPPLY_MORE_ZERO\");\n        IERC20 underlying = IERC20(_erc20Token);\n        ICERC20 cToken = ICERC20(_cErc20Token);\n        require(cToken.isCToken(), \"InkaCompoundProvider: INVALID_CTOKEN_ADDRESS\");\n        require(underlying.allowance(msg.sender, address(this)) >= _numTokensToSupply, \"InkaCompoundProvider: TOKENS_SUPPLY_NOT_ALLOWANCE\");\n        uint feeAmount = _numTokensToSupply.mul(providerFee).div(FEE_DENOMINATOR);\n        TransferHelper.safeTransferFrom(_erc20Token, msg.sender, address(this), _numTokensToSupply);\n        underlying.approve(_cErc20Token, _numTokensToSupply);\n        uint balanceBefore = cToken.balanceOf(address(this));\n        uint mintResult = cToken.mint(_numTokensToSupply.sub(feeAmount));\n        uint balanceAfter = cToken.balanceOf(address(this));\n        TransferHelper.safeTransfer(_cErc20Token, msg.sender, balanceAfter.sub(balanceBefore));\n        emit InkaSupplyERC20Compound(_cErc20Token, _erc20Token, _numTokensToSupply);\n        return mintResult;\n    }\n\n\n    receive() external payable { }\n\n    function withdraw(address token) external onlyOwner {\n        if (token == WETH) {\n            uint256 wethBalance = IERC20(token).balanceOf(address(this));\n            if (wethBalance > 0) {\n                IWETH(WETH).withdraw(wethBalance);\n            }\n            TransferHelper.safeTransferETH(owner(), address(this).balance);\n        } else {\n            TransferHelper.safeTransfer(token, owner(), IERC20(token).balanceOf(address(this)));\n        }\n    }\n\n    function setFee(uint _fee) external onlyOwner {\n        providerFee = _fee;\n    }\n\n    function setWETH(address _weth) external onlyOwner {\n        WETH = _weth;\n    }\n}",
  "sourcePath": "/home/aibek/inka-wallet/inka-compound-provider/contracts/InkaCompoundProvider.sol",
  "compiler": {
    "name": "solc",
    "version": "0.6.12+commit.27d51765.Emscripten.clang"
  },
  "schemaVersion": "3.3.4",
  "updatedAt": "2021-06-16T11:52:31.030Z",
  "networkType": "ethereum",
  "devdoc": {
    "kind": "dev",
    "methods": {
      "owner()": {
        "details": "Returns the address of the current owner."
      },
      "renounceOwnership()": {
        "details": "Leaves the contract without owner. It will not be possible to call `onlyOwner` functions anymore. Can only be called by the current owner. NOTE: Renouncing ownership will leave the contract without an owner, thereby removing any functionality that is only available to the owner."
      },
      "transferOwnership(address)": {
        "details": "Transfers ownership of the contract to a new account (`newOwner`). Can only be called by the current owner."
      }
    },
    "version": 1
  },
  "userdoc": {
    "kind": "user",
    "methods": {},
    "version": 1
  }
}